{
  "contractName": "Register",
  "abi": [
    {
      "constant": true,
      "inputs": [
        {
          "name": "",
          "type": "uint256"
        }
      ],
      "name": "refugees",
      "outputs": [
        {
          "name": "id",
          "type": "uint256"
        },
        {
          "name": "unhcrNum",
          "type": "string"
        },
        {
          "name": "fName",
          "type": "string"
        },
        {
          "name": "lName",
          "type": "string"
        },
        {
          "name": "sex",
          "type": "string"
        },
        {
          "name": "country",
          "type": "string"
        }
      ],
      "payable": false,
      "stateMutability": "view",
      "type": "function"
    },
    {
      "constant": true,
      "inputs": [],
      "name": "refugeeCount",
      "outputs": [
        {
          "name": "",
          "type": "uint256"
        }
      ],
      "payable": false,
      "stateMutability": "view",
      "type": "function"
    },
    {
      "anonymous": false,
      "inputs": [
        {
          "indexed": false,
          "name": "id",
          "type": "uint256"
        },
        {
          "indexed": false,
          "name": "unhcrNum",
          "type": "string"
        },
        {
          "indexed": false,
          "name": "fName",
          "type": "string"
        },
        {
          "indexed": false,
          "name": "lName",
          "type": "string"
        },
        {
          "indexed": false,
          "name": "sex",
          "type": "string"
        },
        {
          "indexed": false,
          "name": "country",
          "type": "string"
        }
      ],
      "name": "refugeeInfo",
      "type": "event"
    },
    {
      "constant": false,
      "inputs": [
        {
          "name": "_unhcrNum",
          "type": "string"
        },
        {
          "name": "_fName",
          "type": "string"
        },
        {
          "name": "_lName",
          "type": "string"
        },
        {
          "name": "_sex",
          "type": "string"
        },
        {
          "name": "_country",
          "type": "string"
        }
      ],
      "name": "setRefugee",
      "outputs": [],
      "payable": false,
      "stateMutability": "nonpayable",
      "type": "function"
    }
  ],
  "bytecode": "0x60806040526000805534801561001457600080fd5b50610bc4806100246000396000f300608060405260043610610057576000357c0100000000000000000000000000000000000000000000000000000000900463ffffffff1680639a180f7e1461005c578063e4b0f13e146102b9578063fbc65034146102e4575b600080fd5b34801561006857600080fd5b5061008760048036038101908080359060200190929190505050610465565b60405180878152602001806020018060200180602001806020018060200186810386528b818151815260200191508051906020019080838360005b838110156100dd5780820151818401526020810190506100c2565b50505050905090810190601f16801561010a5780820380516001836020036101000a031916815260200191505b5086810385528a818151815260200191508051906020019080838360005b83811015610143578082015181840152602081019050610128565b50505050905090810190601f1680156101705780820380516001836020036101000a031916815260200191505b50868103845289818151815260200191508051906020019080838360005b838110156101a957808201518184015260208101905061018e565b50505050905090810190601f1680156101d65780820380516001836020036101000a031916815260200191505b50868103835288818151815260200191508051906020019080838360005b8381101561020f5780820151818401526020810190506101f4565b50505050905090810190601f16801561023c5780820380516001836020036101000a031916815260200191505b50868103825287818151815260200191508051906020019080838360005b8381101561027557808201518184015260208101905061025a565b50505050905090810190601f1680156102a25780820380516001836020036101000a031916815260200191505b509b50505050505050505050505060405180910390f35b3480156102c557600080fd5b506102ce610799565b6040518082815260200191505060405180910390f35b3480156102f057600080fd5b50610463600480360381019080803590602001908201803590602001908080601f0160208091040260200160405190810160405280939291908181526020018383808284378201915050505050509192919290803590602001908201803590602001908080601f0160208091040260200160405190810160405280939291908181526020018383808284378201915050505050509192919290803590602001908201803590602001908080601f0160208091040260200160405190810160405280939291908181526020018383808284378201915050505050509192919290803590602001908201803590602001908080601f0160208091040260200160405190810160405280939291908181526020018383808284378201915050505050509192919290803590602001908201803590602001908080601f016020809104026020016040519081016040528093929190818152602001838380828437820191505050505050919291929050505061079f565b005b6001602052806000526040600020600091509050806000015490806001018054600181600116156101000203166002900480601f0160208091040260200160405190810160405280929190818152602001828054600181600116156101000203166002900480156105175780601f106104ec57610100808354040283529160200191610517565b820191906000526020600020905b8154815290600101906020018083116104fa57829003601f168201915b505050505090806002018054600181600116156101000203166002900480601f0160208091040260200160405190810160405280929190818152602001828054600181600116156101000203166002900480156105b55780601f1061058a576101008083540402835291602001916105b5565b820191906000526020600020905b81548152906001019060200180831161059857829003601f168201915b505050505090806003018054600181600116156101000203166002900480601f0160208091040260200160405190810160405280929190818152602001828054600181600116156101000203166002900480156106535780601f1061062857610100808354040283529160200191610653565b820191906000526020600020905b81548152906001019060200180831161063657829003601f168201915b505050505090806004018054600181600116156101000203166002900480601f0160208091040260200160405190810160405280929190818152602001828054600181600116156101000203166002900480156106f15780601f106106c6576101008083540402835291602001916106f1565b820191906000526020600020905b8154815290600101906020018083116106d457829003601f168201915b505050505090806005018054600181600116156101000203166002900480601f01602080910402602001604051908101604052809291908181526020018280546001816001161561010002031660029004801561078f5780601f106107645761010080835404028352916020019161078f565b820191906000526020600020905b81548152906001019060200180831161077257829003601f168201915b5050505050905086565b60005481565b600080815480929190600101919050555060c060405190810160405280600054815260200186815260200185815260200184815260200183815260200182815250600160008054815260200190815260200160002060008201518160000155602082015181600101908051906020019061081a929190610af3565b506040820151816002019080519060200190610837929190610af3565b506060820151816003019080519060200190610854929190610af3565b506080820151816004019080519060200190610871929190610af3565b5060a082015181600501908051906020019061088e929190610af3565b509050507f84a6325f800be7191e818608caa591c7f138315359a7e2cc3353b146c21b9814600054868686868660405180878152602001806020018060200180602001806020018060200186810386528b818151815260200191508051906020019080838360005b838110156109115780820151818401526020810190506108f6565b50505050905090810190601f16801561093e5780820380516001836020036101000a031916815260200191505b5086810385528a818151815260200191508051906020019080838360005b8381101561097757808201518184015260208101905061095c565b50505050905090810190601f1680156109a45780820380516001836020036101000a031916815260200191505b50868103845289818151815260200191508051906020019080838360005b838110156109dd5780820151818401526020810190506109c2565b50505050905090810190601f168015610a0a5780820380516001836020036101000a031916815260200191505b50868103835288818151815260200191508051906020019080838360005b83811015610a43578082015181840152602081019050610a28565b50505050905090810190601f168015610a705780820380516001836020036101000a031916815260200191505b50868103825287818151815260200191508051906020019080838360005b83811015610aa9578082015181840152602081019050610a8e565b50505050905090810190601f168015610ad65780820380516001836020036101000a031916815260200191505b509b50505050505050505050505060405180910390a15050505050565b828054600181600116156101000203166002900490600052602060002090601f016020900481019282601f10610b3457805160ff1916838001178555610b62565b82800160010185558215610b62579182015b82811115610b61578251825591602001919060010190610b46565b5b509050610b6f9190610b73565b5090565b610b9591905b80821115610b91576000816000905550600101610b79565b5090565b905600a165627a7a723058201107f9509cd935e26cbe688d789ce83de675aca5162a4221dc9d1c1f4d87d70b0029",
  "source": "pragma solidity >=0.4.21 <0.6.0;\r\n\r\ncontract Register {\r\n\r\n    uint public refugeeCount = 0;  //change to 4, as in block number, first data is stored in block 5, refugeeCount++\r\n\r\n/*     string _unhcrNum;\r\n    string _fName;\r\n    string _lName;\r\n    string _sex;\r\n    string _country; */\r\n\r\n    struct Refugee {\r\n\r\n        //address ethAddress;\r\n        uint id;\r\n        string unhcrNum;\r\n        string fName;\r\n        string lName;\r\n        string sex;\r\n        string country;\r\n\r\n    }\r\n    \r\n    // mapping (address => Refugee) public refugees;\r\n    mapping (uint => Refugee) public refugees;\r\n    //address[] public refugeeAccts;\r\n    \r\n    event refugeeInfo(\r\n\r\n       //address ethAddress, \r\n       uint id,\r\n       string unhcrNum,\r\n       string fName,\r\n       string lName,\r\n       string sex,\r\n       string country\r\n    );\r\n    \r\n    // function setRefugee(address _ethAddress, string _unhcrNum, string _fName, string _lName, string _sex, string _country) public {\r\n    function setRefugee(string _unhcrNum, string _fName, string _lName, string _sex, string _country) public {\r\n        \r\n        //address refugee = refugees[_address];\r\n        \r\n        //refugee.fName = _fName;\r\n        //refugee.lName = _lName;\r\n\r\n        //refugees[msg.sender].ethAddress = _address;\r\n\r\n        //refugees[_ethAddress].ethAddress = _ethAddress;\r\n\r\n        refugeeCount ++;\r\n\r\n        refugees[refugeeCount] = Refugee(refugeeCount, _unhcrNum, _fName, _lName, _sex, _country);\r\n\r\n/*         refugees[refugeeCount].unhcrNum = _unhcrNum;\r\n\r\n        refugees[refugeeCount].fName = _fName;\r\n        \r\n        refugees[refugeeCount].lName = _lName;\r\n\r\n        refugees[refugeeCount].sex = _sex;\r\n\r\n        refugees[refugeeCount].country = _country; */\r\n\r\n\r\n       // refugeeAccts.push(msg.sender) - 1;\r\n       // emit refugeeInfo(_address, _fName, _lName);\r\n        // emit refugeeInfo(_ethAddress,_unhcrNum,_fName,_lName,_sex,_country);  \r\n        emit refugeeInfo(refugeeCount,_unhcrNum,_fName,_lName,_sex,_country);  \r\n   \r\n    }\r\n    \r\n/*     function getRefugees() view public returns(address[]) {\r\n        return refugeeAccts;\r\n    }  */   \r\n    \r\n/*     function getDetails() public constant returns (string, string, string, string, string){\r\n        return(_unhcrNum, _fName, _lName, _sex, _country);\r\n    } */\r\n    \r\n}\r\n\r\n",
  "sourcePath": "D:/DappProject/refugeeSystemV11/contracts/Register.sol",
  "compiler": {
    "name": "solc",
    "version": "0.4.24+commit.e67f0147.Emscripten.clang"
  },
  "schemaVersion": "3.0.16",
  "updatedAt": "2019-12-17T15:45:11.809Z",
  "devdoc": {
    "methods": {}
  },
  "userdoc": {
    "methods": {}
  }
}